:020000040000fa
:080000000002040000000000f2
:020000040000fa
:04000800fa020000f8
:020000040000fa
:04000c000c030000e1
:020000040000fa
:040010001c030000cd
:020000040000fa
:0400140002030000e3
:020000040000fa
:0400180014030000cd
:020000040000fa
:04001c00bc04000020
:020000040000fa
:0400200024030000b5
:020000040000fa
:04002400bc04000018
:020000040000fa
:04002800bc04000014
:020000040000fa
:04002c00bc04000010
:020000040000fa
:04003000bc0400000c
:020000040000fa
:04003400bc04000008
:020000040000fa
:04003800bc04000004
:020000040000fa
:04003c00bc04000000
:020000040000fa
:04004000bc040000fc
:020000040000fa
:04004400bc040000f8
:020000040000fa
:04004800bc040000f4
:020000040000fa
:04004c00bc040000f0
:020000040000fa
:04005000bc040000ec
:020000040000fa
:04005400980300000d
:020000040000fa
:040058002c03000075
:020000040000fa
:04005c00bc040000e0
:020000040000fa
:04006000bc040000dc
:020000040000fa
:04006400bc040000d8
:020000040000fa
:04006800bc040000d4
:020000040000fa
:04006c00bc040000d0
:020000040000fa
:04007000bc040000cc
:020000040000fa
:04007400bc040000c8
:020000040000fa
:04007800bc040000c4
:020000040000fa
:04007c00bc040000c0
:020000040000fa
:04008000bc040000bc
:020000040000fa
:04008400bc040000b8
:020000040000fa
:04008800bc040000b4
:020000040000fa
:04008c00bc040000b0
:020000040000fa
:04009000bc040000ac
:020000040000fa
:04009400bc040000a8
:020000040000fa
:04009800bc040000a4
:020000040000fa
:04009c00bc040000a0
:020000040000fa
:0400a00060040000f8
:020000040000fa
:0400a400f403000061
:020000040000fa
:0400a800bc04000094
:020000040000fa
:0400ac00bc04000090
:020000040000fa
:0400b000bc0400008c
:020000040000fa
:0400b400bc04000088
:020000040000fa
:0400b800bc04000084
:020000040000fa
:0400bc00bc04000080
:020000040000fa
:0400c000bc0400007c
:020000040000fa
:0400c400bc04000078
:020000040000fa
:0400c800bc04000074
:020000040000fa
:0400cc00bc04000070
:020000040000fa
:0400d000bc0400006c
:020000040000fa
:0400d400bc04000068
:020000040000fa
:0400d800bc04000064
:020000040000fa
:0400dc00bc04000060
:020000040000fa
:0400e000bc0400005c
:020000040000fa
:0400e400bc04000058
:020000040000fa
:0400e800bc04000054
:020000040000fa
:0400ec00bc04000050
:020000040000fa
:0400f000bc0400004c
:020000040000fa
:0400f400bc04000048
:020000040000fa
:0400f800bc04000044
:020000040000fa
:0400fc00bc04000040
:020000040000fa
:04010000bc0400003b
:020000040000fa
:04010400bc04000037
:020000040000fa
:04010800bc04000033
:020000040000fa
:04010c00bc0400002f
:020000040000fa
:04011000bc0400002b
:020000040000fa
:04011400bc04000027
:020000040000fa
:04011800bc04000023
:020000040000fa
:04011c00bc0400001f
:020000040000fa
:04012000bc0400001b
:020000040000fa
:04012400bc04000017
:020000040000fa
:04012800bc04000013
:020000040000fa
:04012c00de030000ee
:020000040000fa
:04013000a604000021
:020000040000fa
:04013400bc04000007
:020000040000fa
:04013800bc04000003
:020000040000fa
:04013c00bc040000ff
:020000040000fa
:04014000bc040000fb
:020000040000fa
:04014400bc040000f7
:020000040000fa
:04014800bc040000f3
:020000040000fa
:04014c00bc040000ef
:020000040000fa
:04015000bc040000eb
:020000040000fa
:04015400bc040000e7
:020000040000fa
:04015800bc040000e3
:020000040000fa
:04015c00bc040000df
:020000040000fa
:04016000bc040000db
:020000040000fa
:04016400bc040000d7
:020000040000fa
:04016800bc040000d3
:020000040000fa
:04016c00bc040000cf
:020000040000fa
:04017000bc040000cb
:020000040000fa
:04017400bc040000c7
:020000040000fa
:04017800bc040000c3
:020000040000fa
:04017c00bc040000bf
:020000040000fa
:04018000bc040000bb
:020000040000fa
:04018400bc040000b7
:020000040000fa
:04018800bc040000b3
:020000040000fa
:04018c00bc040000af
:020000040000fa
:04019000bc040000ab
:020000040000fa
:04019400bc040000a7
:020000040000fa
:04019800bc040000a3
:020000040000fa
:04019c00bc0400009f
:020000040000fa
:0401a000bc0400009b
:020000040000fa
:0401a400bc04000097
:020000040000fa
:0401a800bc04000093
:020000040000fa
:0401ac00bc0400008f
:020000040000fa
:0401b000bc0400008b
:020000040000fa
:0401b400bc04000087
:020000040000fa
:0401b800bc04000083
:020000040000fa
:0401bc00bc0400007f
:020000040000fa
:0401c000bc0400007b
:020000040000fa
:0401c400bc04000077
:020000040000fa
:0401c800bc04000073
:020000040000fa
:0401cc00bc0400006f
:020000040000fa
:0401d000bc0400006b
:020000040000fa
:0401d400bc04000067
:020000040000fa
:0401d800bc04000063
:020000040000fa
:0401dc00bc0400005f
:020000040000fa
:0401e000bc0400005b
:020000040000fa
:0401e400bc04000057
:020000040000fa
:0401e800bc04000053
:020000040000fa
:0401ec00bc0400004f
:020000040000fa
:0401f000bc0400004b
:020000040000fa
:0401f400bc04000047
:020000040000fa
:0401f800bc04000043
:020000040000fa
:0401fc00bc0400003f
:020000040000fa
:04020000bc0400003a
:020000040000fa
:04020400bc04000036
:020000040000fa
:04020800bc04000032
:020000040000fa
:04020c00bc0400002e
:020000040000fa
:04021000bc0400002a
:020000040000fa
:04021400bc04000026
:020000040000fa
:04021800bc04000022
:020000040000fa
:04021c00bc0400001e
:020000040000fa
:04022000bc0400001a
:020000040000fa
:04022400bc04000016
:020000040000fa
:04022800bc04000012
:020000040000fa
:04022c00bc0400000e
:020000040000fa
:04023000bc0400000a
:020000040000fa
:04023400bc04000006
:020000040000fa
:04023800bc04000002
:020000040000fa
:04023c00bc040000fe
:020000040000fa
:04024000bc040000fa
:020000040000fa
:04024400bc040000f6
:020000040000fa
:04024800bc040000f2
:020000040000fa
:04024c00bc040000ee
:020000040000fa
:04025000bc040000ea
:020000040000fa
:04025400bc040000e6
:020000040000fa
:04025800bc040000e2
:020000040000fa
:04025c00bc040000de
:020000040000fa
:04026000bc040000da
:020000040000fa
:04026400bc040000d6
:020000040000fa
:04026800bc040000d2
:020000040000fa
:04026c00bc040000ce
:020000040000fa
:04027000bc040000ca
:020000040000fa
:04027400bc040000c6
:020000040000fa
:04027800bc040000c2
:020000040000fa
:04027c00bc040000be
:020000040000fa
:04028000bc040000ba
:020000040000fa
:04028400bc040000b6
:020000040000fa
:04028800bc040000b2
:020000040000fa
:04028c00bc040000ae
:020000040000fa
:04029000bc040000aa
:020000040000fa
:04029400bc040000a6
:020000040000fa
:04029800bc040000a2
:020000040000fa
:04029c00bc0400009e
:020000040000fa
:0402a000bc0400009a
:020000040000fa
:0402a400bc04000096
:020000040000fa
:0402a800bc04000092
:020000040000fa
:0402ac00bc0400008e
:020000040000fa
:0402b000bc0400008a
:020000040000fa
:0402b400bc04000086
:020000040000fa
:0402b800bc04000082
:020000040000fa
:0402bc00bc0400007e
:020000040000fa
:0402c000bc0400007a
:020000040000fa
:0402c400bc04000076
:020000040000fa
:0402c800bc04000072
:020000040000fa
:0402cc00bc0400006e
:020000040000fa
:0402d000bc0400006a
:020000040000fa
:0402d400bc04000066
:020000040000fa
:0402d800bc04000062
:020000040000fa
:0402dc00bc0400005e
:020000040000fa
:0402e000bc0400005a
:020000040000fa
:0402e400bc04000056
:020000040000fa
:0402e800bc04000052
:020000040000fa
:0402ec00bc0400004e
:020000040000fa
:0402f000bc0400004a
:020000040000fa
:0402f400bc04000046
:020000040000fa
:0402f800bc04000042
:020000040000fa
:0402fc00bc0400003e
:020000040000fa
:04030000bc04000039
:020000040000fa
:04030400bc04000035
:020000040000fa
:04030800bc04000031
:020000040000fa
:04030c00bc0400002d
:020000040000fa
:04031000bc04000029
:020000040000fa
:04031400bc04000025
:020000040000fa
:04031800bc04000021
:020000040000fa
:04031c00bc0400001d
:020000040000fa
:04032000bc04000019
:020000040000fa
:100400006f2221000eff22000e0188000000000074
:10041000000020000000e000020032000001200087
:100420002002880014000700550107000000e000ca
:1004300003003a00c0d32100010020000200370071
:100440000000200001002000810f70000100320038
:100450000f000700000020000000e0000200320052
:100460000000020000000000f80b02000000000085
:100470000040da000000fe00c00720000000e0009d
:1004800002003200002020009001880000000600d9
:10049000a1028800800478000000eb001f003700f4
:1004a000e284440054a0b4009905ba00e2844400f8
:1004b00054a0b4009906ba00e284440054a0b400e9
:1004c0000006eb00476fde00fd07b200ae018800ba
:1004d000636ce10003003a000ad801000000eb0061
:1004e0000e003700606ce10008003a00004deb00a0
:1004f0000a05e800020039003420ec000af0a000f0
:100500008b05e900f9ff3e00040037006168e10057
:10051000010032000086eb000b00070019c7ba008b
:100520000e04e0001905ba0003003a000a00e000da
:10053000dbff3a0000000600fe07b200ae028800b2
:100540008a047800f5ff37000cd0a300e20f4d00bd
:100550001c00390089027800354dba000a05e80010
:10056000020039003420ec000af0a0008b05e900fd
:100570000f003200254dba000a05e80002003900dc
:100580003420ec000af0a0008b05e90008003200de
:100590000c00e0000600320015cdba000a05e800a4
:1005a000020039003420ec000af0a0008b05e900bd
:1005b0008984e80054a0b4000b00e000e2ff3a0098
:1005c000000006009902ba00055d78008b05e9007d
:1005d000f7ff3200c82ade00055d78008b05e900d0
:1005e000f3ff32000c00e000f1ff320019ddba0029
:1005f000eeff37003600f800c028a9000000eb002d
:10060000440d07003600f800460d0700c048a90059
:10061000100020003f0d07003600f800c068a90058
:10062000200020003b0d07003600f800c088a9001c
:1006300030002000370d07003600f800c608a9007a
:1006400070002000330d07003600f800c408a90030
:10065000b00020002f0d0700809fbe000000fa00b0
:100660004180800030808000808f500010003a0070
:100670005180800000102000008060000000e00039
:100680000b003a0000000000111180000010200053
:10069000008060000000e000fbff3200508080001e
:1006a0000090a000508088002188a9001d0037001c
:1006b0000188a900140037004080800010407800b5
:1006c0000080fb0020118800408080000000e800ce
:1006d0004080880041808000e0032100808f50002e
:1006e00002003a00c0002100408088005080800055
:1006f0000080a10050808800418080003080800010
:10070000808f500006003200111180000020200070
:10071000008060000000e000e7ff320001003700c9
:10072000000000000080fa004f00be0000400600fc
:10073000809fbe000000fa00180037001080800083
:1007400031118000814078000148780010808000dd
:100750000000e80010808800118080000007210060
:10076000808f500002003a00e003210010808800d2
:10077000508080000010a10050808800118080000f
:1007800020808000808f500004003a00508080005c
:100790000000a00050808800040037001011800085
:1007a000610060000000e000e4ff3a000168a90079
:1007b0000080fa004f00be0000400600801f780055
:1007c0000000fa0010118000620060000000e000ec
:1007d000010032002222a9000828a9000080fa00a6
:1007e0004f00780000400600809fbe000000fa0025
:1007f000b1838000a0838000808f500010003a00f9
:10080000c183800000102000008060000000e00034
:100810000b003a0000000000911180000010200041
:10082000008060000000e000fbff3200c083800019
:100830000090a000c083880023e8a9001d003700b5
:1008400003e8a90014003700b0838000104078004e
:100850000080fb00a0118800b08380000000e80049
:10086000b0838800b1838000c00a2100808f5000cf
:1008700002003a00a0072100b0838800c0838000f6
:100880000080a100c0838800b1838000a083800025
:10089000808f50000600320091118000002020005f
:1008a000008060000000e000e7ff32000100370038
:1008b000000000000080fa004f00be00004006006b
:1008c000809fbe000000fa0018003700808380007f
:1008d000b111800081407800014878008083800059
:1008e0000000e8008083880081838000e00d210003
:1008f000808f500002003a00c00a210080838800e7
:10090000c08380000010a100c08388008183800024
:1009100090838000808f500004003a00c0838000e4
:100920000000a000c0838800040037009011800000
:10093000610060000000e000e4ff3a0003c8a90085
:100940000080fa004f00be0000400600801f7800c3
:100950000000fa0090118000620060000000e000da
:10096000010032003222a9000848a9000080fa00e4
:100970004f007800004006000040da000000fe0052
:10098000000005008001780002003700b1597800ae
:100990000201e9000200e000fcff3a00000006004e
:1009a00000017800820178003204e000fdff3a0087
:1009b00003017800b1417800035978000304e00096
:1009c000fcff3a000000060080007800010178007a
:1009d0003104e000fdff3a00000051000000060075
:020000040000fa
:1009e00000410000540d00000a0000003e200000fd
:1009f000003c0000200000000d0a0000003c000048
:100a000020450000525200004f5200000d0a000025
:100a100000410000542b00004f520000474c0000e2
:100a20000d0a000000410000542b00004e41000060
:100a30004d4500003d000000534f00004c410000b8
:100a4000524200004f410000540000004154000099
:100a50002b50000057530000443d000000310000bf
:100a60003233000034000000415400002b550000d8
:100a700041520000543d0000323300003430000089
:100a8000303000002c3000002c300000004100000d
:100a9000542b00005245000053450000540d000047
:100aa0000a0000005761000069740000696e0000d0
:100ab00067200000666f000072200000706f000069
:100ac0007765000072200000726500007365000009
:080ad000740d00000a00000093
:020000040000fa
:100ad8000400fa00100798000000eb00000f7800ef
:100ae800dd0a070005003700b10a0700e50a07001c
:100af8000004e000010032001e0fe8001e00900014
:100b08009e007800808f5000f7ff3900d90a07004f
:100b18000080fa00000006006400fa0014eea90044
:100b2800007d2000eaff07006018200040118800bf
:100b3800400420000e00400001022000bd0607000e
:100b4800004f78000e00e80012002000014f280036
:100b58008aff07000e00e80099ff07008e00e800f2
:100b68000080400052002000114f280083ff07003a
:100b78000e00e80092ff0700800078000e00e800f1
:100b8800e1060700100220000e004000320020009d
:100b9800614f280079ff07008e00e800100220004e
:100ba8000e0040007cff0700100220000e004000ed
:100bb80083ff070080007800100220000e0040002c
:100bc8002c080700401f2000c1ff07004004200038
:100bd8000e0040000102200096060700004f780032
:100be8001e407800e14f40001f0032001e00fb004d
:100bf8004004b0008040eb0001777800100220002c
:100c08000e00400032002000914f28005bff0700d3
:100c1800410420008e804000100220000e00400099
:100c28005dff0700100220000e00400064ff07006f
:100c3800110220008e804000008040003200200019
:100c4800c14f28004dff0700100220000e00400091
:100c58005bff070080007800100220000e004000b3
:100c6800040807000c003700100220000e004000a6
:100c7800a2002000f14f280040ff070010022000ca
:100c88000e0040004eff0700800078001002200090
:100c98000e004000f70707000e00e80012002000d1
:100ca800014f280035ff07000e00e80044ff070049
:100cb8008e00e8000080400052002000114f2800fc
:100cc8002eff07000e00e8003dff070080007800b7
:100cd8000e00e8008c060700100220000e004000fd
:100ce80032002000614f280024ff07008e00e80032
:100cf800100220000e00400027ff0700100220000d
:100d08000e0040002eff070080007800100220002f
:100d18000e004000d7070700401f20006cff0700a7
:100d2800400420000e004000010220004106070098
:100d3800004f78001e407800e14f40001f0032004d
:100d48001e00fb004004b0008040eb0001777800f3
:100d5800100220000e00400032002000914f2800b1
:100d680006ff0700410420008e804000100220008a
:100d78000e00400008ff0700100220000e0040008f
:100d88000fff0700110220008e8040000080400005
:100d980032002000c14f2800f8fe07001002200092
:100da8000e00400006ff07008000780010022000b7
:100db8000e004000af0707000c00370010022000ab
:100dc8000e004000a2002000f14f2800ebfe0700b3
:100dd800100220000e004000f9fe07008000780095
:100de800100220000e004000a20707000e00e800d5
:100df80012002000014f2800e0fe07000e00e80066
:100e0800effe07008e00e80000804000a2002000ee
:100e180091502800d9fe07000e00e800e8fe070000
:100e2800800078000e00e800370607001002200056
:100e38000e00400032002000614f2800cffe07005e
:100e48008e00e800100220000e004000d2fe0700cd
:100e5800100220000e004000d9fe07008000780034
:100e6800100220000e00400082070700401f2000eb
:100e780017ff0700400420000e0040000102200078
:100e8800ec050700004f78001e407800e14f400055
:100e98001f0032001e00fb004004b0008040eb0041
:100ea80001777800100220000e0040003200200078
:100eb800914f2800b1fe0700410420008e804000b9
:100ec800100220000e004000b3fe070010022000b0
:100ed8000e004000bafe0700110220008e8040007c
:100ee8000080400032002000c14f2800a3fe070008
:100ef800100220000e004000b1fe070080007800bc
:100f0800100220000e0040005a0707000c003700ae
:100f1800100220000e004000a2002000f14f28001f
:100f280096fe0700100220000e004000a4fe0700f5
:100f380080007800100220000e0040004d070700d6
:100f4800a0612000401188000e00e8001200200077
:100f5800014f280089fe07000e00e80098fe0700f0
:100f68008e00e800008040009200200031512800e7
:100f780082fe07000e00e80091fe07008e00e800e0
:100f880000804000a2002000c15128007bfe07001d
:100f98000e00e8008afe07008e00e800008040008e
:100fa80032002000c14f280074fe07000e00e80040
:100fb80083fe0700800078000e00e800d2050700d5
:100fc800100220000e00400032002000614f28006f
:100fd8006afe07008e00e800100220000e004000a4
:100fe8006dfe0700100220000e00400074fe07008e
:100ff80080007800100220000e0040001d07070046
:10100800401f2000b2fe0700400420000e004000f0
:101018000102200087050700004f78001e40780075
:10102800e14f40001f0032001e00fb004004b000ea
:101038008040eb0001777800100220000e0040008d
:1010480032002000914f28004cfe07004104200088
:101058008e804000100220000e0040004efe070067
:10106800100220000e00400055fe0700110220006b
:101078008e8040000080400032002000c14f2800d0
:101088003efe0700100220000e0040004cfe070044
:1010980080007800100220000e004000f5060700ce
:1010a8000c003700100220000e004000a2002000b3
:1010b800f14f280031fe0700100220000e0040000a
:1010c8003ffe070080007800100220000e0040005c
:1010d800e80607000e00e80012002000014f280073
:1010e80026fe07000e00e80035fe07008e00e80027
:1010f8000080400092002000615228001ffe070077
:101108000e00e8002efe07008e00e8000080400078
:1011180052002000f152280018fe07000e00e800d7
:1011280027fe07008e00e800008040003200200003
:10113800c14f280011fe07000e00e80020fe07003e
:10114800800078000e00e8006f05070010022000fc
:101158000e00400032002000614f280007fe070003
:101168008e00e800100220000e0040000afe070072
:10117800100220000e00400011fe070080007800d9
:10118800100220000e004000ba060700401f200091
:101198004ffe0700400420000e004000010220001e
:1011a80024050700004f78001e407800e14f4000fa
:1011b8001f0032001e00fb004004b0008040eb001e
:1011c80001777800100220000e0040003200200055
:1011d800914f2800e9fd0700410420008e8040005f
:1011e800100220000e004000ebfd07001002200056
:1011f8000e004000f2fd0700110220008e80400022
:101208000080400032002000c14f2800dbfd0700ad
:10121800100220000e004000e9fd07008000780061
:10122800100220000e004000920607000c00370054
:10123800100220000e004000a2002000f14f2800fc
:10124800cefd0700100220000e004000dcfd070064
:1012580080007800100220000e004000850607007c
:101268000e00e80012002000014f2800c3fd07000f
:101278000e00e800d2fd07008e00e8000080400064
:101288003201200041532800bcfd07000e00e80091
:10129800cbfd07008e00e8000080400032002000ef
:1012a800c14f2800b5fd07000e00e800c4fd070087
:1012b800800078000e00e8001305070010022000e7
:1012c8000e00400032002000614f2800abfd0700ef
:1012d8008e00e800100220000e004000aefd07005e
:1012e800100220000e004000b5fd070080007800c5
:1012f800100220000e0040005e060700401f20007c
:10130800f3fd0700400420000e0040000102200009
:10131800c8040700004f78001e407800e14f4000e5
:101328001f0032001e00fb004004b0008040eb00ac
:1013380001777800100220000e00400032002000e3
:10134800914f28008dfd0700410420008e80400049
:10135800100220000e0040008ffd07001002200040
:101368000e00400096fd0700110220008e8040000c
:101378000080400032002000c14f28007ffd070098
:10138800100220000e0040008dfd0700800078004c
:10139800100220000e004000360607000c0037003f
:1013a800100220000e004000a2002000f14f28008b
:1013b80072fd0700100220000e00400080fd0700ab
:1013c80080007800100220000e0040002906070067
:1013d8000004200040118800401f2000bcfd0700c9
:1013e8000e00e80012002000014f280063fd0700ee
:1013f8000e00e80072fd07008e00e8000080400043
:1014080052002000114f28005cfd07000e00e80084
:101418006bfd0700800078000e00e800ba040700a2
:10142800100220000e00400032002000614f28000a
:1014380052fd07008e00e800100220000e00400058
:1014480055fd0700100220000e0040005cfd07005b
:1014580080007800100220000e00400005060700fa
:10146800401f20009afd0700400420000e004000a5
:10147800010220006f040700004f78001e4078002a
:10148800e14f40001f0032001e00fb004004b00086
:101498008040eb0001777800100220000e00400029
:1014a80032002000914f280034fd0700410420003d
:1014b8008e804000100220000e00400036fd07001c
:1014c800100220000e0040003dfd07001102200020
:1014d8008e8040000080400032002000c14f28006c
:1014e80026fd0700100220000e00400034fd070012
:1014f80080007800100220000e004000dd05070083
:101508000c003700100220000e004000a20020004e
:10151800f14f280019fd0700100220000e004000be
:1015280027fd070080007800100220000e00400010
:10153800d00507000e00e80012002000014f280027
:101548000efd07000e00e8001dfd07008e00e800f4
:101558000080400052002000114f280007fd0700be
:101568000e00e80016fd0700800078000e00e80075
:1015780065040700100220000e0040003200200021
:10158800614f2800fdfc07008e00e80010022000d3
:101598000e00400000fd0700100220000e00400071
:1015a80007fd070080007800100220000e004000b0
:1015b800b0050700401f200045fd0700400420003b
:1015c8000e004000010220001a040700004f7800b6
:1015d8001e407800e14f40001f0032001e00fb0053
:1015e8004004b0008040eb00017778001002200032
:1015f8000e00400032002000914f2800dffc070059
:10160800410420008e804000100220000e0040009f
:10161800e1fc0700100220000e004000e8fc070073
:10162800110220008e80400000804000320020001f
:10163800c14f2800d1fc0700100220000e00400016
:10164800dffc070080007800100220000e00400038
:10165800880507000c003700100220000e0040002b
:10166800a2002000f14f2800c4fc0700100220004f
:101678000e004000d2fc0700800078001002200015
:101688000e0040007b0507000e00e8001200200055
:10169800014f2800b9fc07000e00e800c8fc07004d
:1016a8008e00e80000804000b2002000715428003d
:1016b800b2fc07000e00e800c1fc070080007800bb
:1016c8000e00e80010040700100220000e00400081
:1016d80032002000614f2800a8fc07008e00e800b7
:1016e800100220000e004000abfc07001002200092
:1016f8000e004000b2fc07008000780010022000b5
:101708000e0040005b050700401f2000f0fc0700aa
:10171800400420000e00400001022000c50307001d
:10172800004f78001e407800e14f40001f00320053
:101738001e00fb004004b0008040eb0001777800f9
:10174800100220000e00400032002000914f2800b7
:101758008afc0700410420008e804000100220000f
:101768000e0040008cfc0700100220000e00400014
:1017780093fc0700110220008e804000008040008a
:1017880032002000c14f28007cfc07001002200016
:101798000e0040008afc070080007800100220003c
:1017a8000e004000330507000c003700100220002f
:1017b8000e004000a2002000f14f28006ffc070037
:1017c800100220000e0040007dfc07008000780019
:1017d800100220000e0040002605070014eea800a5
:1017e8000080fa00000006000000fa0092080700d6
:1017f800f1000700fc000700917080000020200025
:10180800008060000000e00008003200c2fc070011
:101818002055280091012000160507008038210076
:10182800abfc0700faff3700000000000020210091
:101838002f0107000004e000fbff320014eea900ae
:101848000121210000202100970607000021210026
:101858005bfc07008000780000212100aa03070034
:101868000021210056fc070080007800002121009b
:101878000005070014eea800ecff37000200fa008c
:10188800000f78001e007800e10f500009003200b8
:10189800e10f500005003900e20f50000700320048
:1018a800e30f5000070032000800370001eba800e2
:1018b8000600370011eba8000400370021eba80050
:1018c8000200370031eba800000000000080fa0099
:1018d800000006000400fa00000f780011079800c5
:1018e8001e007800e10f50000b003200e10f50009d
:1018f80005003900e20f50000b003200e30f5000e2
:101908000d003200100037009e009000215888001a
:10191800062bef000c0037009e009000a1588800ad
:10192800162bef00080037009e0090002159880010
:10193800262bef00040037009e009000a159880074
:10194800362bef00000000000080fa0000000600bf
:101958000400fa00000f7800110798001e007800b4
:10196800e10f50000a003200e10f50000500390075
:10197800e20f500009003200e30f50000a00320065
:101988000c0037001e0090006058880009003700de
:101998001e009000e0588800060037001e009000e6
:1019a80060598800030037001e009000e059880045
:1019b800000000000080fa00000006000000fa00a5
:1019c8002468a9008c24ef0001248000f08f2f00e8
:1019d8000080600000a0a000002488000000000033
:1019e80001248000000e2000808060000008200094
:1019f800808f5000faff3a00b00020008024880051
:101a0800801a200090248800800028003024880054
:101a180010002000a02488008024ef008004a80083
:101a2800c1248000c0ff2f0000806000c02488000f
:101a3800802580007f00600080258800a025800028
:101a48007f006000a0258800c02580007f0060001e
:101a5800c025880081258000c0ff2f00008060001d
:101a680080258800a1258000c0ff2f00008060002d
:101a7800a0258800c1258000c0ff2f0000806000dd
:101a8800c0258800b224ef00b624ef00ba24ef0086
:101a9800b064a900b464a900b864a9000026800055
:101aa8007f00600000e0a00000268800012680007a
:101ab800c0ff2f000080600000268800c224ef00cd
:101ac800c064a90000258000f000b300002588004c
:101ad8008004a900b0e4a800b1e4a800b2e4a8001a
:101ae800b3e4a800b4e4a800b5e4a800b6e4a800ec
:101af800b7e4a80081258000c0ff2f0000806000a7
:101b08008025880081258000f0cf2f0000806000ac
:101b18008025880091258000c0ff2f00008060008c
:101b28009025880091258000f0cf2f00008060006c
:101b380090258800a1258000c0ff2f00008060004c
:101b4800a0258800a1258000f0cf2f00008060002c
:101b5800a0258800b1258000c0ff2f00008060000c
:101b6800b0258800b1258000f0cf2f0000806000ec
:101b7800b0258800a024ef00a224ef00a824ef00dd
:101b8800aa24ef008a24a90001248000f08f2f00e6
:101b9800008060000024880000000000012480000c
:101ba800000e2000008060000000e000fbff3a000b
:101bb8000080fa00000006000000fa00214c200016
:101bc8000000eb0062ff0700001021008000780091
:101bd8000000eb003fff07000000eb0027ff0700b5
:101be8000080fa00000006000000fa00014c200006
:101bf8001000200056ff0700001021008000780028
:101c08001000200033ff0700100020001bff070012
:101c18000080fa00000006000a00fa003007980069
:101c280041079800004b2000000f78000040eb00af
:101c3800404798000000eb00100798002600370086
:101c48001e0078009040780000c8b30000c0600013
:101c58000004e0001c0032001e00780010407800ec
:101c6800684060000004e00017003a0001102100fd
:101c78001e0090004400dd0000804000ce0090006f
:101c8800c60107003e00900000407800e340600075
:101c98001e007800e3c0600090417800c2cfb30016
:101ca80002c1610081407100014878001e0078007f
:101cb800904078000134a0000148780010c0b300bb
:101cc80040479800070037001e0fe8001e009000ec
:101cd8000000e800100798001e009000e70f500071
:101ce800d7ff36004e4090000080fa000000060042
:101cf8000a00fa00400798000040eb0020479800cf
:101d080050248000640060000000e00003003200fe
:101d18008a44a9002e4090003300370040248000f8
:101d280000407800f043b2000080fb0030079800c4
:101d38003e009000ef0f500005003e000125800096
:101d480021079800be009000010f780004003700ba
:101d580011258000210798003e009000700f500068
:101d68001e007800ae0090000008de0061006000f0
:101d7800004078000004e0001a0032003e009000a5
:101d880000407800ce009000820007003e009000de
:101d9800ef0f500009003e001e00780011002000df
:101da8000008dd000080ea0080007800002580003f
:101db8000080600000258800080037001e007800b9
:101dc800110020000008dd000080ea008000780093
:101dd80010258000008060001025880010c0b30026
:101de800204798002e4090000080fa00000006006e
:101df8000000fa00502480004d00de0061406000c1
:101e08000080fb0000f0a7000000ea000000ea00e4
:101e18004f00de00004078000080fa000000060055
:101e28000000fa00502480004b00de006140600092
:101e38000080fb0000f0a7000000ea000000ea00b4
:101e48004f00de00004078000080fa000000060025
:101e58000000fa00502480004c00de006140600061
:101e68000080fb0000f0a7000000ea000000ea0084
:101e78004f00de00004078000080fa0000000600f5
:101e88000600fa000000eb00000f78000125800032
:101e9800210798002e0090000000e0001100320099
:101ea8000000eb00100798000b0037001e009000a0
:101eb800ae0090000008de0061006000004078007d
:101ec8000004e000010032001e0fe8001e00900030
:101ed8000000e800100798001e009000ef0f500067
:101ee800f2ff360011258000210798002e0090008f
:101ef8000000e000110032000000eb00100798001d
:101f08000b0037001e009000ae0090000008de00b5
:101f180061006000004078000004e0000100320029
:101f28001e0fe8001e0090000000e800100798004f
:101f38001e009000ef0f5000f2ff36001e007800e0
:101f4800004078000080fa00000006000000fa0057
:101f58008ac4a9008cc4a8002468a80001248000b1
:101f6800f08f2f00008060000080a000002488000f
:101f78000000000001248000000e20008080600026
:101f880000022000808f5000faff3a000080fa001b
:101f9800000006000c00fa00004f98005107980056
:101fa8000000eb00100798000000eb00000f78001d
:101fb8006000b80020079800310798000e4890008c
:101fc8000080fb00c400dd000010210000804000fc
:101fd8001000780061006000100798001e00900053
:101fe8000000e00017003a000e4890000080fb0057
:101ff800c400dd000010210000804000900078003f
:10200800c0ff2100008060004200de008000eb007d
:102018005e0190000089be005e00900041c0b300e0
:10202800414098000e4890000080fb00c400dd008d
:10203800001021000080400010007800620f60004e
:102048006b0037000e4890000080fb00c400dd00e4
:102058000010210000804000100078006101b800e5
:10206800c0ff21000100200002027800030178006f
:10207800800178000100780003026200000061001e
:102088008000eb00c000dd00000020000001be0061
:102098006120b80000017100818171002207980059
:1020a800330798002e009000be009000c000dd00ad
:1020b800000020005e0190000089be005e009000d4
:1020c80010027800900290000e4890000080fb00fb
:1020d8004400dd008080e8000010210000804000fe
:1020e800100078006101b800f0ff20000100200016
:1020f800020378000301780080017800010078006d
:1021080003036300000061008000eb00c000dd00f5
:10211800000020000001be006130b800000171001d
:10212800818171004618dd00ca10de008100700050
:102138004610dd0004004000858048005e019000e4
:102148000089be005e0090001002780090029000a6
:102158000e4890000080fb004400dd00e4004000d1
:102168000010210000804000100078004a00de00c6
:102178006101b800f0ff2f00010020000203780081
:1021880003017800800178000100780003036300f0
:10219800000061008000eb00c000dd0000002000ae
:1021a8000001be006130b80000017100818171003a
:1021b80004004100858049005e0190000089be004e
:1021c8005e00900031c0b300414098000e48900076
:1021d8000080fb004400dd00e40040000010210006
:1021e800008040009000780000202000008f6000f0
:1021f8001e0078000000e000040032005e0090003d
:1022080021c0b30051409800620037005e00900082
:1022180011c0b300514098000e4890000080fb00a8
:102228004400dd00e600400000102100008040006e
:1022380010007800804078005e009000714098009f
:102248000e4890000080fb004400dd00e6004000de
:102258000010210000804000100078004800de00d7
:10226800804078005e009000014898000e48900079
:102278000080fb004400dd00e80040000010210061
:102288000080400010007800804078005e009000d8
:10229800114898000e4890000080fb004400dd00c3
:1022a800e800400000102100008040001000780085
:1022b8004800de00804078005e00900021489800c9
:1022c8000e4890000080fb004400dd00ea0040005a
:1022d8000010210000804000100078008040780045
:1022e8005e009000314898000e4890000080fb0086
:1022f8004400dd00ea00400000102100008040009a
:10230800100078004800de00804078005e009000f1
:10231800414898000e4890000080fb004400dd0012
:10232800ec00400000102100008040001000780000
:10233800804078005e009000514898000e48900058
:102348000080fb004400dd00ec004000001021008c
:1023580000804000100078004800de0080407800cf
:102368005e009000614898000e4890000080fb00d5
:102378004400dd00e400400000102100008040001f
:102388001000780000407800ef4060005e00900088
:10239800614098000080fa00000006000400fa007e
:1023a800000f7800110798001e0090004040900030
:1023b800e44f500014003a001e0090009000900076
:1023c8001000780080007800f07f20000080600016
:1023d800c200dd001e007800010878001e80e800b9
:1023e8008000eb00010878009e00780064804000bf
:1023f8009e009000e14090008180fb00ef8060002b
:1024080001087800240037001e009000900090001a
:10241800100078004008de0080007800c0ff21002e
:1024280000806000800078000100a0001e00780095
:10243800010878001e81e8001e00900090009000be
:1024480010007800ca09dd004600de000080710037
:10245800c608de0080007800f0ff200000806000e1
:10246800000978009e007800648140001e009000fa
:10247800604090000080fb00ef0160001e009000ab
:102488009000900010007800000078004a00dd00fd
:1024980000804100000978009e01780066804100b4
:1024a8009e009000814890008180fb004809dd0073
:1024b8009e009000f14090008180fb008100410067
:1024c800010878009e007800688040009e00900017
:1024d800a14890008180fb004809dd009e00900023
:1024e800914890008180fb0081004100010878003c
:1024f8009e0178006a8041009e009000c1489000cb
:102508008180fb004809dd009e009000b1489000e2
:102518008180fb0081004100010878009e0078005e
:102528006c8040009e009000e14890008180fb0094
:102538004809dd009e009000d14890008180fb0092
:1025480081004100010878000080fa0000000600c0
:102558000000fa0080002000001188002222ef000d
:1025680000042000401188002168a80045010700e8
:10257800c000210040808800c00021003080880011
:10258800e003210020808800e003210010808800fb
:10259800508080000010a00050808800508080008b
:1025a8000090a00050808800508080000080a1002a
:1025b80050808800508080000000a1005080880072
:1025c8000080fa00000006000200fa000040eb005c
:1025d800004f780020808000104f78002080800015
:1025e8000000e8002080880021808000000721008a
:1025f800808f500002003a00e0032100208088000c
:102608002180800010808000808f500003003a00f5
:10261800508080000010a00050808800508080000a
:102628000000a100508088001e4078000080fa0059
:10263800000006000600fa00881f780010079800be
:10264800210798000000eb00000f78000900370010
:1026580050808000620060000000e0000a003a003c
:102668001e0090001e044000d7ff0700004c7800b1
:102678001e0fe8002e0090009e007800808f50000a
:10268800f3ff390001003700000000001e00780049
:102698004f0478000080fa00000006000200fa00eb
:1026a800004f78002188a900308080001e487800fb
:1026b800308080000000e800308088003180800091
:1026c800e0032100808f500002003a00c000210082
:1026d80030808800508080000090a10050808800e1
:1026e8004180800030808000808f500003003a00d5
:1026f800508080000080a000508088002188a800b9
:102708000080fa00000006000600fa001007980092
:10271800210798000000eb00000f78000a0037003e
:102728005180800000102000008060000000e00060
:102738000a003a001e0090001e0040001040780079
:102748001e0fe800d5ff07002e0090009e007800bd
:10275800808f5000f2ff39000100370000000000b0
:102768001e0078000080fa00000006000200fa004f
:102778000000eb00000f780051808000002020004e
:10278800008060000000e000010032001e40a00050
:102798005180800000102000008060000000e000f0
:1027a800010032001e30a0005080800061006000ef
:1027b8000000e000010032001e00a00050808000f0
:1027c800620060000000e000020032001e20a0004d
:1027d800010037001e10a0001e0078000080fa00db
:1027e800000006000200fa00000f78002080800038
:1027f8009e00400000072100808f5000090039002a
:10280800208080009e004000000721000000ea00b0
:1028180000804000e1032100008040001040780063
:1028280003003700208080001e0040001040780020
:102838000080fa00000006000800fa00200798004f
:10284800310798000000eb001007980010c0b30093
:10285800004f7800be00900010032000808f5000c9
:1028680007003e0050808000620060000000e00029
:1028780003003a002e0090000000e00003003a0038
:102888000040eb00004f78003400370020808000c3
:10289800800078003e00900080804000e003210026
:1028a8000000ea008080400020032000000178003a
:1028b800110009008280d8008000fd0010079800f0
:1028c8002180800010808000808f50000a00310035
:1028d800218080003e0090008080400010808000b1
:1028e8000000e900808f5000150036000040eb0022
:1028f800004f78001200370021808000108080008f
:10290800808f50000e0036009e009000e0032100ea
:102918008080400020808000808f500008003100b7
:102928009e009000e003210080804000108080001d
:10293800808f5000020039000040eb00004f780003
:102948001e4078000004e000040032003e009000c1
:10295800a4ff0700ae009000804878001e40780071
:102968000080fa00000006000000fa005080800095
:10297800610060000000e0000f003a002180800044
:1029880010808000808f5000050036002080800075
:102998008000780010808000008050000700370019
:1029a8002080800080007800108080000080500027
:1029b8002003b000010037000000eb000080fa009f
:1029c800000006000000fa0051808000001020007e
:1029d800008060000000e0000f003a0041808000a5
:1029e80030808000808f50000500360040808000d5
:1029f8008000780030808000008050000700370099
:102a08004080800080007800308080000080500086
:102a18002003b000010037000000eb000080fa003e
:102a2800000006000000fa00508080000000d1007d
:102a3800614060000080fb0000f0a7000000ea0091
:102a48000000ea004f00de00004078000080fa0035
:102a5800000006000000fa00508080004800de00f8
:102a6800614060000080fb0000f0a7000000ea0061
:102a78000000ea004f00de00004078000080fa0005
:102a8800000006000000fa0021e2a8002342a80086
:102a98000080fa00000006000000fa0021e2a90008
:102aa8002342a9000080fa00000006000000fa0096
:102ab800101180000080fa00000006000000fa00f3
:102ac80080002000801188003222ef0000042000de
:102ad800c011880023c8a80045010700a0072100ed
:102ae800b0838800a0072100a0838800c00a2100c5
:102af80090838800c00a210080838800c0838000fa
:102b08000010a000c0838800c08380000090a0004f
:102b1800c0838800c08380000080a100c083880033
:102b2800c08380000000a100c08388000080fa00f4
:102b3800000006000200fa000040eb00004f780099
:102b480090838000104f7800908380000000e80098
:102b58009083880091838000e00d2100808f5000d1
:102b680002003a00c00a2100908388009183800007
:102b780080838000808f500003003a00c08380006b
:102b88000010a000c0838800c08380000000a1005e
:102b9800c08388001e4078000080fa00000006000c
:102ba8000600fa00881f780010079800210798008f
:102bb8000000eb00000f780009003700c083800098
:102bc800620060000000e0000a003a001e00900069
:102bd8001e044000d7ff0700004c78001e0fe800d5
:102be8002e0090009e007800808f5000f3ff39007f
:102bf80001003700000000001e0078004f04780034
:102c08000080fa00000006000200fa00004f780079
:102c180023e8a900a08380001e487800a0838000d4
:102c28000000e800a0838800a1838000c00a21007a
:102c3800808f500002003a00a0072100a08388007e
:102c4800c08380000090a100c0838800b183800009
:102c5800a0838000808f500003003a00c08380006a
:102c68000080a000c083880023e8a8000080fa0044
:102c7800000006000600fa001007980021079800d7
:102c88000000eb00000f78000a003700c1838000c5
:102c980000102000008060000000e0000a003a00f8
:102ca8001e0090001e004000104078001e0fe80033
:102cb800d5ff07002e0090009e007800808f5000fe
:102cc800f2ff390001003700000000001e00780004
:102cd8000080fa00000006000200fa000000eb0085
:102ce800000f7800c1838000002020000080600071
:102cf8000000e000010032001e40a000c1838000f7
:102d080000102000008060000000e0000100320098
:102d18001e30a000c0838000610060000000e00059
:102d2800010032001e00a000c08380006200600025
:102d38000000e000020032001e20a0000100370061
:102d48001e10a0001e0078000080fa000000060097
:102d58000200fa00000f7800908380009e00400077
:102d6800e00d2100808f5000090039009083800019
:102d78009e004000e00d21000000ea0000804000b5
:102d8800c10a21000080400010407800030037008d
:102d9800908380001e004000104078000080fa00f8
:102da800000006000800fa00200798003107980084
:102db8000000eb001007980010c0b300004f780027
:102dc800be00900010032000808f500007003e00d6
:102dd800c0838000620060000000e00003003a0049
:102de8002e0090000000e00003003a000040eb00d5
:102df800004f78003400370090838000800078000e
:102e08003e00900080804000c00a21000000ea00d7
:102e18008080400020032000000178001100090094
:102e28008280d8008000fd00100798009183800000
:102e380080838000808f50000a00310091838000d9
:102e48003e00900080804000808380000000e90000
:102e5800808f5000150036000040eb00004f7800ce
:102e6800120037009183800080838000808f50009b
:102e78000e0036009e009000c00a210080804000ad
:102e880090838000808f5000080031009e009000e1
:102e9800c00a21008080400080838000808f50001d
:102ea800020039000040eb00004f78001e40780017
:102eb8000004e000040032003e009000a4ff070078
:102ec800ae009000804878001e4078000080fa002c
:102ed800000006000000fa00c08380006100600066
:102ee8000000e0000f003a0091838000808380009a
:102ef800808f5000050036009083800080007800a5
:102f08008083800000805000070037009083800095
:102f18008000780080838000008050002003b0008b
:102f2800010037000000eb000080fa0000000600f6
:102f38000000fa00c18380000010200000806000bb
:102f48000000e0000f003a00b1838000a0838000f9
:102f5800808f500005003600b08380008000780024
:102f6800a08380000080500007003700b0838000f5
:102f780080007800a0838000008050002003b0000b
:102f8800010037000000eb000080fa000000060096
:102f98000000fa00c08380000000d100614060009a
:102fa8000080fb0000f0a7000000ea000000ea0033
:102fb8004f00de00004078000080fa0000000600a4
:102fc8000000fa00c08380004800de006140600015
:102fd8000080fb0000f0a7000000ea000000ea0003
:102fe8004f00de00004078000080fa000000060074
:102ff8000000fa0031e2a8003342a8000080fa007d
:10300800000006000000fa0031e2a9003342a900de
:103018000080fa00000006000000fa00901180000d
:103028000080fa00000006000000fa00003a800064
:103038000080fa00000006000200fa00faff07000c
:10304800000f78001e007800240007000004e0004c
:103058000200320000002800710007001e007800fe
:103068002a0007000004e0000200320000002400eb
:103078006b0007001e007800320007000004e00023
:103088000200320000202000650007001e007800c2
:103098003a0007000004e0000200320000082000a7
:1030a8005f0007001e007800420007000004e000ef
:1030b8000200320000042000590007001e007800ba
:1030c8004a0007000004e00002003200000120006e
:1030d800530007000080fa00000006000400fa0010
:1030e800100798000040eb00004f78001e00900089
:1030f8000000e00002003d0010c0b300004f78005f
:103108001e4078000080fa00000006000400fa0063
:10311800100798000040eb00004f78009e009000d8
:1031280000002400008060000000e000020032007f
:1031380010c0b300004f78001e4078000080fa00ed
:10314800000006000400fa00100798000040eb0099
:10315800004f78009e009000002020000080600052
:103168000000e0000200320010c0b300004f7800f9
:103178001e4078000080fa00000006000400fa00f3
:10318800100798000040eb00004f78009e00900068
:1031980000082000008060000000e000020032000b
:1031a80010c0b300004f78001e4078000080fa007d
:1031b800000006000400fa00100798000040eb0029
:1031c800004f78009e0090000004200000806000fe
:1031d8000000e0000200320010c0b300004f780089
:1031e8001e4078000080fa00000006000400fa0083
:1031f800100798000040eb00004f78001e00900078
:10320800700060000000e0000200320010c0b3004f
:10321800004f78001e4078000080fa000000060089
:103228000200fa00000f78009e80ea00003a800051
:1032380000806000003a88000080fa000000060064
:103248000000fa004027ef000080fa0000000600a6
:103258000400fa00004f7800110798009e4078009b
:103268006fc060000043b000804078001e009000ee
:10327800014878001e0090009040780090c3b30089
:1032880080cf5000060034001e00900010407800e7
:1032980067404000804078001e0090000148780098
:1032a8000080fa00000006000600fa0010079800e7
:1032b800210798000040eb00004f78001e009000a6
:1032c80090009000100078004809dd004800de00fa
:1032d80000007100c808de00004078006f40600000
:1032e800ae009000daff07002e0090000000e80012
:1032f800200798001e0090009000900010007800b1
:103308004c09dd004400de0000007100c408de0046
:10331800004078006f406000ae009000ccff0700ce
:103328002e0090000000e800200798001e00900082
:103338009000900010007800004078006f40600016
:10334800ae009000c2ff07002e0090000000e800c9
:1033580020079800190037001e80fb006700400016
:103368009e00900000804000104078000080fb0024
:103378004400de0000407800ae009000b4ff070073
:103388002e0090000000e800200798001e80fb0037
:10339800670040009e0090000080400010407800c8
:1033a8006f406000ae009000a9ff07002e0090005b
:1033b8000000e800200798001e4fe8001e0090005b
:1033c800604090009e4f5000e3ff3a002e009000ae
:1033d800a1c0b300014878002e0090000000e8006a
:1033e800200798002e0090008040eb0001487800ec
:1033f8000080fa00000006000000fa000002220027
:10340800005888006004200010588800062bef0040
:1034180000002100205888000a2bef00082bef003d
:103428000c2bef0070002000705888000088a9005d
:103438000002200080588800200220009058880050
:10344800162bef0000002100a05888001a2bef006f
:10345800182bef001c2bef0070002000f05888009c
:1034680001c8a900202bef00222bef00262bef002c
:1034780000002100205988002a2bef00282bef009c
:103488002c2bef002e2bef000308a900302bef00a8
:10349800322bef00362bef0000002100a0598800e6
:1034a8003a2bef00382bef003c2bef003e2bef00c0
:1034b8000488a9000080fa00000006000000fa0055
:1034c8000080fa00000006000000fa0000408000ba
:1034d800700060000000e00002003200f7ff070003
:1034e8000088a9000080fa00000006000000fa0029
:1034f8000080fa00000006000000fa000140800089
:1035080000002400008060000000e000020032009b
:10351800f6ff070001c8a9000080fa0000000600b5
:103528000000fa000080fa00000006000000fa001f
:103538001140800000102000008060000000e000c2
:1035480002003200f6ff07000308a9000080fa0015
:10355800000006000000fa000080fa0000000600e3
:103568000000fa0020408000700060000000e000c9
:1035780002003200f7ff07000488a9000080fa0063
:10358800000006000000fa000021ef00c0d421006e
:10359800100888000001280020088800e00f21009a
:1035a8008040eb00014878000080fa000000060027
:1035b8000000fa0000408000680060000000e000a1
:1035c80009003200f00f2100104078008040e80028
:1035d800f00f210001487800e00f210011c0b3006e
:1035e800014878000068a9000080fa000000060081
:1035f8000200fa00000f78009e0078001108880089
:10360800e00f21008040eb00014878000080fa00bc
:10361800000006000000fa00100880000080fa0090
:10362800000006000200fa00000f78009e007800f3
:1036380001088800e00f21008040eb000148780075
:103648000080fa00000006000000fa000008800070
:103658000080fa00000006000000fa00e00f2100d8
:103668008040eb000148780005e1a8000080fa00de
:10367800000006000000fa0005e1a9000080fa0039
:10368800000006000200fa00e00f2100104f780049
:103698001e4078000004e00003003200e00f210023
:1036a8008040eb00014878001e4078000080fa0056
:1036b800000006000000fa00f00f2100104078001a
:1036c8000080fb000080fa00000006000000fa00fd
:1036d800f00f21008040eb00014878000080fa00dc
:1036e800000006000000fa00042eef000009200088
:1036f800a07088000010200020718800d0012000f0
:1037080000708800f0b72f0080708800e07f2000ec
:10371800007188000c2eef001c2eef002c2eef00fd
:103728000a2eef001a2eef002a2eef00062eef00c9
:10373800162eef00262eef00200020007070880063
:1037480040062000f07088006067210070718800d2
:10375800113a8000f00b2000008160006004200016
:103768007105200023742000804978008149780081
:1037780082497800e133800000f82f000080600063
:103788003000b300e033880031348000f00f2800a7
:10379800008060000090a0003034880030c1b30081
:1037a800c6e6b70041338000f00f280000806000b3
:1037b8000080a0004033880000c1b300c5e6b70010
:1037c8004134800000f82f0000806000e000b30062
:1037d8004034880040c1b300d4e6b70020c1b3002c
:1037e800c4e6b700103a8000000178000260a0002b
:1037f80060042000710520002374200080497800af
:1038080081497800824978000080fa0000000600ab
:103818000000fa0069f807000080fa0000000600be
:103828000000fa00e4f807000080fa000000060033
:103838000000fa00ecf807000080fa00000006001b
:103848000400fa00000f7800110798001e0090008d
:10385800800078001e007800eff807000080fa006a
:10386800000006000200fa00000f78001e00780031
:103878001ff907000080fa00000006000000fa00a7
:103888005bf907000080fa00000006000000fa005b
:103898006ff907000080fa00000006000000fa0037
:1038a8006bf907000080fa00000006000000fa002b
:1038b80073f907000080fa00000006000000fa0013
:1038c800a2f907000080fa00000006000000fa00d4
:1038d80000102300203a88004827ef004e27ef0009
:1038e800c0012000303a880000782200803a880021
:1038f8004c27ef006027ef006227ef006427ef00f6
:103908006a27ef006c27ef006e27ef0032002000d7
:1039180080072000a1092000337420008049780026
:103928008149780082497800120020006004200054
:1039380071052000237420008049780081497800af
:103948008249780000000000103a800061006000a1
:103958000000e000fcff3a0000000000113a80007f
:1039680000022000008060000000e000fbff320041
:103978000080fa00000006000000fa000143800001
:10398800f08f2f00008060000080a00000438800b6
:1039980071428000f0ff28000080600000c0a00095
:1039a8007042880071428000f08f2f000080600014
:1039b8000080a0007042880001438000f0f82f00ca
:1039c800008060000040a000004388003142800071
:1039d80080ff2f00008060000000a00030428800b7
:1039e80021428000f0ff28000080600000c0a00095
:1039f800204288000080fa00000006000200fa0059
:103a0800000f780021028000200f20000080600055
:103a18001e007000200288000080fa0000000600e6
:103a28000000fa00c3e8a800000000000000000041
:103a38000080fa00000006000000fa0029ff0700d5
:103a4800a2ff0700ccff07001cfc0700c0fa070014
:103a5800daf70700cbfe070067fe0700f0ff070054
:103a680000022000e5ff07000080fa0000000600c1
:020000040000fa
:103a7800001100000001000080000000de100000be
:103a8800200000008000000000100000020000007c
:103a980082000000ffff0000021000006e0000001e
:103aa80080000000701000006e0000008000000020
:103ab800fe1000000200000080000000001200005c
:0c3ac8002600000080000000000000004c
:020000040000fa
:103ad4000000fa007eff07000080fa0000000600e4
:103ae4000000fa00003a80000080fa00000006009e
:103af4000000fa0051fd07000080fa0000000600f3
:103b04000000fa00cffd07000080fa000000060064
:103b1400000f78009e00780001808800ffff3700c6
:103b24000000fa00e00d210080077800600f2100fa
:0c3b3400000188000080fa00000006007c
:020000040000fa
:020000040002f8
:04af0000ffff00004f
:020000040000fa
:020000040002f8
:04af2000ff1f00000f
:020000040000fa
:020000040002f8
:04af3000f8ffff0027
:020000040000fa
:020000040002f8
:04af38003efeff00da
:020000040000fa
:020000040002f8
:04af40009fffff0070
:020000040000fa
:020000040002f8
:04af5000deffff0021
:020000040000fa
:020000040002f8
:04af5800ffffff00f8
:020000040000fa
:020000040002f8
:04af6000ffffff00f0
:020000040000fa
:020000040002f8
:04aff800ff0f000047
:020000040000fa
:020000040100f9
:04200000ffffff00df
:00000001FF
